{
  "contractName": "payment",
  "abi": [
    {
      "inputs": [],
      "payable": false,
      "stateMutability": "nonpayable",
      "type": "constructor"
    },
    {
      "anonymous": false,
      "inputs": [
        {
          "indexed": false,
          "name": "sender",
          "type": "address"
        },
        {
          "indexed": false,
          "name": "recipient",
          "type": "address"
        },
        {
          "indexed": false,
          "name": "amount",
          "type": "uint256"
        }
      ],
      "name": "transfer",
      "type": "event"
    },
    {
      "constant": false,
      "inputs": [
        {
          "name": "self",
          "type": "address"
        },
        {
          "name": "amount",
          "type": "uint256"
        }
      ],
      "name": "buyCurrency",
      "outputs": [],
      "payable": false,
      "stateMutability": "nonpayable",
      "type": "function"
    },
    {
      "constant": false,
      "inputs": [
        {
          "name": "recipient",
          "type": "address"
        },
        {
          "name": "amount",
          "type": "uint256"
        }
      ],
      "name": "moneyTransfer",
      "outputs": [
        {
          "name": "",
          "type": "bool"
        }
      ],
      "payable": false,
      "stateMutability": "nonpayable",
      "type": "function"
    },
    {
      "constant": true,
      "inputs": [
        {
          "name": "account",
          "type": "address"
        }
      ],
      "name": "checkBalance",
      "outputs": [
        {
          "name": "",
          "type": "uint256"
        }
      ],
      "payable": false,
      "stateMutability": "view",
      "type": "function"
    }
  ],
  "bytecode": "0x608060405234801561001057600080fd5b50336000806101000a81548173ffffffffffffffffffffffffffffffffffffffff021916908373ffffffffffffffffffffffffffffffffffffffff16021790555061047c806100606000396000f300608060405260043610610057576000357c0100000000000000000000000000000000000000000000000000000000900463ffffffff168063045756491461005c5780635f515226146100c1578063b87457ca14610118575b600080fd5b34801561006857600080fd5b506100a7600480360381019080803573ffffffffffffffffffffffffffffffffffffffff16906020019092919080359060200190929190505050610165565b604051808215151515815260200191505060405180910390f35b3480156100cd57600080fd5b50610102600480360381019080803573ffffffffffffffffffffffffffffffffffffffff16906020019092919050505061035a565b6040518082815260200191505060405180910390f35b34801561012457600080fd5b50610163600480360381019080803573ffffffffffffffffffffffffffffffffffffffff169060200190929190803590602001909291905050506103a3565b005b600081600160008060009054906101000a900473ffffffffffffffffffffffffffffffffffffffff1673ffffffffffffffffffffffffffffffffffffffff1673ffffffffffffffffffffffffffffffffffffffff1681526020019081526020016000205410156101d85760009050610354565b81600160008060009054906101000a900473ffffffffffffffffffffffffffffffffffffffff1673ffffffffffffffffffffffffffffffffffffffff1673ffffffffffffffffffffffffffffffffffffffff1681526020019081526020016000206000828254039250508190555081600160008573ffffffffffffffffffffffffffffffffffffffff1673ffffffffffffffffffffffffffffffffffffffff168152602001908152602001600020600082825401925050819055507fbeabacc8ffedac16e9a60acdb2ca743d80c2ebb44977a93fa8e483c74d2b35a86000809054906101000a900473ffffffffffffffffffffffffffffffffffffffff168484604051808473ffffffffffffffffffffffffffffffffffffffff1673ffffffffffffffffffffffffffffffffffffffff1681526020018373ffffffffffffffffffffffffffffffffffffffff1673ffffffffffffffffffffffffffffffffffffffff168152602001828152602001935050505060405180910390a15b92915050565b6000600160008373ffffffffffffffffffffffffffffffffffffffff1673ffffffffffffffffffffffffffffffffffffffff168152602001908152602001600020549050919050565b6000809054906101000a900473ffffffffffffffffffffffffffffffffffffffff1673ffffffffffffffffffffffffffffffffffffffff168273ffffffffffffffffffffffffffffffffffffffff161415156103fe5761044c565b80600160008473ffffffffffffffffffffffffffffffffffffffff1673ffffffffffffffffffffffffffffffffffffffff168152602001908152602001600020600082825401925050819055505b50505600a165627a7a72305820bf39151257f535879329e5a59f40ad4f88e8e996d1d1ac2698fea4efc242ebc90029",
  "source": "pragma solidity >=0.4.22 <0.6.0;//any version of comiler between 0.4.22 and 0.6.0\r\ncontract payment{\r\n    //declaring variables for balance tracking and admin address\r\n    \r\n    address admin;\r\n    mapping (address=> uint) balances;\r\n    event transfer(address sender,address recipient,uint amount);\r\n    \r\n    //constructor call\r\n    constructor() public{\r\n        //assigning admin address to be the sender/initiator of the contract\r\n        \r\n        admin=msg.sender;\r\n    }\r\n    //buying more currency\r\n    function buyCurrency(address self,uint amount) public{\r\n    \r\n    //check if the address is of the admin, if not, function is discarded\r\n    if(self!=admin)return;\r\n    \r\n    //getting currency and adding to balances of admin\r\n    balances[self]+=amount;\r\n    }\r\n    \r\n    //for the actual transfer of money to address secified\r\n    function moneyTransfer(address recipient, uint amount) public returns (bool){\r\n        //check if admin has sufficient balance\r\n        if(balances[admin]<amount) return false;\r\n        balances[admin]-=amount;\r\n        balances[recipient]+=amount;\r\n        emit transfer(admin, recipient, amount);\r\n    }\r\n    //to check balance in particular account address\r\n    function checkBalance(address account) public view returns (uint){\r\n        return balances[account];\r\n    }\r\n}",
  "sourcePath": "C:/Users/ssrinivas35/Documents/Training/Project/Project-2/Blockchain-artifacts/contracts/paymentContract.sol",
  "compiler": {
    "name": "solc",
    "version": "0.4.25+commit.59dbf8f1.Emscripten.clang"
  },
  "schemaVersion": "3.0.19",
  "updatedAt": "2019-11-26T08:46:53.222Z",
  "devdoc": {
    "methods": {}
  },
  "userdoc": {
    "methods": {}
  }
}